:1070000055C000008DC000008BC0000089C000008A
:1070100087C0000085C0000083C0000081C0000060
:107020007FC000007DC00000ADC0000079C000003E
:1070300077C0000075C0000073C0000071C0000080
:107040006FC000006DC000006BC0000069C0000090
:1070500067C0000065C0000063C0000061C00000A0
:107060005FC000005DC000005BC0000059C00000B0
:1070700057C0000055C0000053C0000051C00000C0
:107080004FC000004DC000004BC0000049C00000D0
:1070900047C0000045C0000043C0000041C00000E0
:1070A0003FC000003DC000003BC0000011241FBED7
:1070B000CFEFDAE0DEBFCDBF04B603FE1CC0809187
:1070C00054019091550182349C4DA9F484B7877F77
:1070D00084BF0FB6F894A895809160008861809372
:1070E0006000109260000FBE109255011092540182
:1070F000E0E0F0E0099511E0A0E0B1E0ECEFF7E7A7
:1071000002C005900D92AA34B107D9F721E0AAE494
:10711000B1E001C01D92A435B207E1F7E1D06CC324
:107120006FCF80914B0187FF0FC08091E80082FDF7
:1071300004C08EB38111F9CF10C08091E8008B7725
:107140000AC08EB3882349F08091E80080FFF9CF10
:107150008091E8008E778093E80008958F70809387
:10716000E900EBEEF0E0808181608083EDEEF0E0FD
:1071700010826093EC0040838091EE00881F882786
:10718000881F08951F920F920FB60F9211242F930C
:107190003F934F935F936F937F938F939F93AF939F
:1071A000BF93EF93FF938091DA0080FF19C0809125
:1071B000D80080FF15C08091DA008E7F8093DA00BE
:1071C0008091D90080FF0AC080E189BD82E189BD3C
:1071D00009B400FEFDCF81E08EBB02C019BC1EBA0F
:1071E0008091E10080FF16C08091E20080FF12C014
:1071F0008091E2008E7F8093E2008091E2008061C6
:107200008093E2008091D80080628093D80019BCFE
:1072100085E08EBB8091E10084FF2DC08091E2006B
:1072200084FF29C080E189BD82E189BD09B400FEE7
:10723000FDCF8091D8008F7D8093D8008091E100B0
:107240008F7E8093E1008091E2008F7E8093E20048
:107250008091E20081608093E20080915301882355
:1072600011F084E007C08091E30087FD02C081E057
:1072700001C083E08EBB8091E10083FF20C080913C
:10728000E20083FF1CC08091E100877F8093E100D2
:1072900082E08EBB109253018091E1008E7F80933B
:1072A000E1008091E2008E7F8093E2008091E20015
:1072B00080618093E20042E060E080E04FDFFF9178
:1072C000EF91BF91AF919F918F917F916F915F915E
:1072D0004F913F912F910F900FBE0F901F901895D7
:1072E00084B7877F84BF0FB6F894A895809160001B
:1072F000886180936000109260000FBE90E080E88B
:107300000FB6F89480936100909361000FBE91E0F6
:1073100095BF82E085BF8091D8008F7E8093D80092
:107320008091D70081608093D70084E082BF9093E2
:107330004A018091D8008E7F8093D8001092E2009D
:107340001092DA001092E1008091D8008F7780933C
:10735000D8008091D80080688093D8008091D800B0
:107360008F7D8093D80019BC1EBA10925301809172
:10737000E0008B7F8093E0008091D8008160809353
:10738000D80042E060E080E0E9DE8091E1008E7F9D
:107390008093E1008091E20081608093E20080911F
:1073A000E20088608093E2008091E0008E7F80930D
:1073B000E0008091D80080618093D8007894C3E584
:1073C000D1E073E0E72EE4E0DE2ECC24C39401E0AC
:1073D00010E080910001882309F4B2C18EB38823A4
:1073E000E9F38091E9008F702091EC00922F917069
:1073F00020FD90E8F92EF82A1092E9008091E8002B
:1074000083FF99C1EBE4F1E08091F1008193CE1705
:10741000DF07D1F780914B018F77813209F06EC081
:1074200080914C01893009F069C08091E800877F24
:107430008093E8008091E80082FFFCCF3091F1005A
:107440002091F100832F922F9C012F7733278F3FBC
:107450004FEF940719F4109200014AC08115E0E73C
:107460009E0708F045C02115310509F041C04FB70E
:10747000F894FC01E0925700E89507B600FCFDCFB8
:107480004FBF6091F3004091F20050E0562B452B26
:10749000E9F07091F1006091F100472F562FF9014A
:1074A000EE0FFF1FE80FF91F0A01C0925700E89581
:1074B00011242F5F3F4F2034310519F72FB7F8946F
:1074C00035E0FC0130935700E8950AC04091E80090
:1074D0004B774093E8004091E80042FFFCCFD9CFC2
:1074E00007B600FCFDCF2FBF81E180935700E895E0
:1074F0008091E8008B778093E80013DE8091E800AC
:1075000083FF0BC180914B0190914C01953009F4A0
:107510006DC030F4913071F168F0933059F1FDC0D5
:10752000983009F498C0993009F4A5C0963009F054
:10753000F4C07EC0803899F0823809F0EEC08091A6
:107540004F018F70873008F0E8C08093E900809188
:10755000EB0085FB882780F91092E90001C080E0EC
:107560009091E800977F9093E8008093F10010924B
:10757000F1007DC0282F2D7F09F0CFC0823009F0A7
:10758000CCC080914D01811128C080914F018F7036
:107590002FEF280F263008F0C0C08093E90020911B
:1075A000EB0020FF1AC0933021F48091EB00806241
:1075B00012C09091EB0090619093EB00980102C093
:1075C000220F331F8A95E2F72093EA001092EA0017
:1075D0008091EB0088608093EB001092E90080912D
:1075E000E800877F8093E8009CDD97C0811195C0FB
:1075F00080914D018F77B82E8091E30080788B29A0
:107600008093E3008091E800877F8093E80089DD24
:107610008091E80080FFFCCF8091E3008068809338
:10762000E300B11002C082E001C083E08EBB75C0F0
:107630008058823008F071C080914E01813009F489
:107640009BC0823009F49DC0813209F49FC0823210
:1076500009F063C0A0C0803809F05FC08091E800E5
:10766000877F8093E800809153018093F10080919F
:10767000E8008E77B7CF811150C080914D01909175
:107680004E01992702970CF048C08091E800877F4F
:107690008093E800B0904D01B092530142DDBB20D1
:1076A00031F0DEBA42E361EC81E058DD36C0809112
:1076B000E30087FD02C081E001C084E08EBBF2CF11
:1076C000853031F18091E80083FD22C08091E8008F
:1076D00082FD8DC08091E80080FF13C04091F300CF
:1076E0008091F20090E0942B2115310509F066C0DD
:1076F00041E0089709F040E08091E8008E778093A0
:10770000E8002115310509F464C08EB38111D8CF8A
:107710008091E8008B778093E8008091E80083FFF8
:107720000AC08091E800877F8093E8008091EB0099
:1077300080628093EB008F2D8F708093E90049CE9B
:107740008FE99FE00197F1F700C000008091E00011
:1077500081608093E00082E49CED909355018093DA
:1077600054019CE088E10FB6F894A89580936000DE
:107770000FBE90936000FFCF82E190E0E8E3F1E07C
:107780000EC082E290E0E6E1F1E009C089E090E01D
:10779000E8E2F1E004C085E190E0E1E0F1E0209171
:1077A000E800277F2093E800209151013091520199
:1077B0008217930708F49C0140E0A3CF883091051D
:1077C00008F096CF41914093F10021503109019684
:1077D0008BCF41119ACF0BC08EB3882309F498CF79
:1077E000853009F495CF8091E80083FD91CF809199
:0C77F000E80082FFF1CF8CCFF894FFCFAF
:1077FC000106DCFF09FBA1010902150025FF750834
:10780C009682009102C00902220001010080320917
:10781C0004000001030000000921110100012215E0
:10782C00000705810340000512011001000000084B
:0A783C00EB036720010000000001CB
:040000030000700089
:00000001FF
