:1070000055C00000B7C00000B5C00000B3C000000C
:10701000B1C00000AFC00000ADC00000ABC00000B8
:10702000A9C00000A7C0000061C10000A3C000000B
:10703000A1C000009FC000009DC000009BC00000D8
:1070400099C0000097C0000095C0000093C00000E8
:107050008CC200008FC000008DC000008BC00000FB
:1070600089C0000087C0000085C0000083C0000008
:1070700081C000007FC000007DC000007BC0000018
:1070800079C0000077C0000075C0000073C0000028
:1070900071C000006FC000006DC000006BC0000038
:1070A00069C0000067C0000065C0000011241FBE59
:1070B000CFEFDAE0DEBFCDBFE3E0F0E089E0809320
:1070C0005700849180FD12C004B601FE0AC081E021
:1070D0002091A2013091A30122343C4D19F080E0AF
:1070E00001C081E094B79D7F94BF11C004B603FE38
:1070F0000AC081E02091A2013091A30122343C4DCD
:1071000019F080E001C080E094B7977F94BF20E041
:1071100030E0F901459154918823B9F04F3F5F4F1A
:10712000A1F084B7877F84BF0FB6F894A8958091AB
:107130006000886180936000109260000FBE109222
:10714000A3011092A201F901099511E0A0E0B1E0BC
:10715000E2E6FEE702C005900D92A439B107D9F727
:1071600021E0A4E9B1E001C01D92A23AB207E1F723
:107170000AD275C645CF8091990187FF0FC08091D3
:10718000E80082FD04C08EB38111F9CF10C0809158
:10719000E8008B770AC08EB3882349F08091E8001D
:1071A00080FFF9CF8091E8008E778093E800089502
:1071B0008F708093E900EBEEF0E080818160808346
:1071C000EDEEF0E010826093EC0040838091EE00E1
:1071D000881F8827881F089520919F013091A00162
:1071E0002617370748F06115710539F42091E8003A
:1071F0002E772093E80001C0B901FC0120E0611561
:10720000710571F18EB38823E9F18530E9F1809140
:10721000E80083FD3BC08091E80082FD2DC0809195
:10722000E80080FFECCF2091F3008091F20090E025
:10723000922B6115710551F08830910538F4219138
:107240002093F100615071090196F3CF21E0089776
:1072500009F020E08091E8008E778093E800CFCF9E
:107260002111D0CF09C08EB3882361F0853061F041
:107270008091E80083FD0AC08091E80082FFF3CF8F
:1072800080E0089582E0089583E0089581E0089504
:1072900093E09093E9009091E80095FF03C08093FC
:1072A000F10008959091E8009E779093E800909106
:1072B000E80090FDF4CF9EB39111F9CF089584E0DA
:1072C0008093E9008091E80085FD0DC08091E80081
:1072D0008B778093E8008091E80082FDF3CF8EB336
:1072E0008111F9CF02C08091F10008951F920F9291
:1072F0000FB60F9211242F933F934F935F936F9389
:107300007F938F939F93AF93BF93EF93FF9380915E
:10731000DA0080FF19C08091D80080FF15C08091ED
:10732000DA008E7F8093DA008091D90080FF0AC056
:1073300080E189BD82E189BD09B400FEFDCF81E015
:107340008EBB02C019BC1EBA8091E10080FF16C03E
:107350008091E20080FF12C08091E2008E7F8093D6
:10736000E2008091E20080618093E2008091D80089
:1073700080628093D80019BC85E08EBB8091E100CB
:1073800084FF2DC08091E20084FF29C080E189BD87
:1073900082E189BD09B400FEFDCF8091D8008F7DC8
:1073A0008093D8008091E1008F7E8093E1008091EE
:1073B000E2008F7E8093E2008091E2008160809302
:1073C000E2008091A101882311F084E007C0809140
:1073D000E30087FD02C081E001C083E08EBB8091A5
:1073E000E10083FF20C08091E20083FF1CC08091F8
:1073F000E100877F8093E10082E08EBB1092A101C3
:107400008091E1008E7F8093E1008091E2008E7F89
:107410008093E2008091E20080618093E20042E08C
:1074200060E080E0C5DEFF91EF91BF91AF919F9149
:107430008F917F916F915F914F913F912F910F901D
:107440000FBE0F901F9018959FB7F89407B600FCD9
:10745000FDCFF999FECF809529E0E1E0F0E0082E1C
:1074600020935700E8959FBF0895E1E0F0E089E0A0
:10747000809357008491089529E0FC0120935700E0
:107480008491089521E2FC0120935700849108958E
:1074900007B600FCFDCFF999FECF21E0FB010A0100
:1074A00020935700E895112408950F931F936115B9
:1074B00020E772078105910570F441E08B019C0182
:1074C0000F77112722273327012B022B032B09F0DB
:1074D00040E0242F01C020E020FF14C02FB7F89413
:1074E00007B600FCFDCFF999FECF35E0FB013093E4
:1074F0005700E89507B600FCFDCF91E19093570047
:10750000E8952FBF1F910F9108950F931F93611559
:1075100020E772078105910570F441E08B019C0121
:107520000F77112722273327012B022B032B09F07A
:1075300040E0242F01C020E020FF14C02FB7F894B2
:1075400007B600FCFDCFF999FECF33E0FB01309385
:107550005700E89507B600FCFDCF91E190935700E6
:10756000E8952FBF1F910F9108951F920F920FB6AC
:107570000F9211248F9380E489B98F910F900FBEE1
:107580000F901F90189584B7877F84BF0FB6F8942B
:10759000A8958091600088618093600010926000DF
:1075A0000FBE90E080E80FB6F8948093610090934E
:1075B00061000FBEC1E0C5BF82E085BF8091D800E9
:1075C0008F7E8093D8008091D70081608093D70010
:1075D00084E082BFC09394018091D8008E7F809315
:1075E000D8001092E2001092DA001092E10080912F
:1075F000D8008F778093D8008091D80080688093DE
:10760000D8008091D8008F7D8093D80019BC1EBA15
:107610001092A1018091E0008B7F8093E000809127
:10762000D80081608093D80042E060E080E0C0DD57
:107630008091E1008E7F8093E1008091E200816083
:107640008093E2008091E20088608093E200809164
:10765000E0008E7F8093E0008091D800806180936D
:10766000D800569A5E98C0936F0083E080938100A3
:107670005E9A789484E0682E93E0492E8091070109
:10768000882309F497C36092E9008091E80082FFA3
:10769000F8C115DE082F853419F41092070107C0D0
:1076A00088E8800F823010F0043521F408DE8DE088
:1076B000EFDDC0C10035D9F30C34C9F3043721F430
:1076C00084E4E6DD80E0F4CF013611F489E5F0CF03
:1076D000013491F4F4DDC82FF2DD2C2F30E0322F8D
:1076E0002227330F90E0880F991F822B932B092EAE
:1076F000000CAA0BBB0B72C1003711F483E5D8CF85
:10770000033551F4CCE8D1E08991C2DD43E951E081
:107710004C175D07C9F78EC1063521F481E3B8DD4A
:1077200080E3C6CF033731F487E8B2DD85E9B0DD09
:107730008EE1BECF053691F4C12CD12C7601C70164
:10774000B601E3DE50E8C50ED11CE11CF11CC114EA
:1077500080E7D806E104F10491F7A9CF0C3619F4BB
:10776000AEDD72DEA4CF023711F47FDEA1CF063486
:1077700021F449E0E0E0F0E00BC00E3421F449E0F0
:10778000E3E0F0E005C0013539F449E0E2E0F0E083
:107790004093570084918CCF023631F489E578DD2F
:1077A00080E076DD80E884CF023419F0073609F0F6
:1077B000B3C085DDC82FD0E0DC2FCC2780DDC82BFF
:1077C0007EDD182F8BEB810F823010F08FE370CFAE
:1077D000073609F03DC0B12C209709F42BC1C090A9
:1077E0009501D0909601E0909701F09098011634A1
:1077F000C1F4EB2DF0E0EC29FD29849149DDBB209B
:1078000069F052E0C50ED11CE11CF11CC09295013B
:10781000D0929601E0929701F092980181E0B8260B
:1078200015C0D701C601B695A79597958795FDD246
:107830002FDD92E0C90ED11CE11CF11CC092950114
:10784000D0929601E0929701F09298012197C4CFCF
:107850008090950190909601A0909701B09098012A
:10786000163419F4C501B40150DE512C712C209747
:1078700009F44CC0163431F57720E9F020DDC090D2
:107880009501D0909601E0909701F0909801452DD8
:1078900050E0582BC701B601FBDDE2E0CE0ED11C53
:1078A000E11CF11CC0929501D0929601E0929701E3
:1078B000F092980102C003DD582E81E0711080E043
:1078C000782E22C0FCDC682F809195019091960162
:1078D000A0919701B0919801B695A7959795879536
:1078E000ACD28091950190919601A0919701B091B1
:1078F00098010296A11DB11D809395019093960168
:10790000A0939701B09398012197B1CF163409F055
:10791000CECEC501B40138C0033469F4D0DC482FA1
:1079200050E060919501709196018091970190913E
:107930009801AEDDBCCE0336E9F4C1DCC090950100
:10794000D0909601E0909701F0909801482F50E078
:10795000C701B60161609CDDF2E0CF0ED11CE11CD5
:10796000F11CC0929501D0929601E0929701F0929D
:1079700098019DCE0D3651F460919501709196015C
:10798000809197019091980190DD91CE023551F44C
:10799000E0919501F0919601C591D4918D2F78DCFD
:1079A0008C2F86CE043419F58ADC682F80919501DE
:1079B00090919601A0919701B0919801B695A795E5
:1079C000979587953AD28091950190919601A091D3
:1079D0009701B09198010296A11DB11D8093950168
:1079E00090939601A0939701B093980160CE0436CE
:1079F000F1F4C0909501D0909601E0909701F0903D
:107A00009801D701C601B695A795979587950DD290
:107A10003FDC42E0C40ED11CE11CF11CC092950178
:107A2000D0929601E0929701F092980103C00B3139
:107A300009F0CCCE4092E9009091E8008091E800F6
:107A40008E778093E80095FD11C08091E80080FD5D
:107A500004C08EB38111F9CF14C08091E8008E77F5
:107A60008093E80003C08EB3882359F08091E8002A
:107A700080FFF9CF6092E9008091E8008B778093D6
:107A8000E8008EB3882309F4F9CDC091E900CF70E6
:107A90009091EC00892F817090FD80E8C82B1092A6
:107AA000E9008091E80083FF81C1E9E9F1E081EA22
:107AB00091E02091F10021938E179F07D1F78091DB
:107AC00099018F77813209F06BC080E489B9809188
:107AD0009A01813239F0823209F458C0803209F0BB
:107AE0005FC013C080919901813A09F059C080911B
:107AF000E800877F8093E80067E070E080E091E035
:107B00006BDB8091E8008B773EC0809199018132D8
:107B100009F046C08091E800877F8093E800E0E0AC
:107B2000F1E027E030E02115310531F18EB38823F3
:107B300039F1853029F18091E80083FD21C08091E1
:107B4000E80082FFF0CF4091F3008091F20090E0D6
:107B5000942B892B31F08091F100819321503109D0
:107B600091F78091E8008B778093E800DCCF8EB3AB
:107B7000882331F0853021F08091E80080FFF7CF35
:107B80008091E8008E778093E8000AC08091990187
:107B9000813231F48091E800877F8093E800EBDA4E
:107BA0008091E80083FFF4C08091990190919A013F
:107BB000953009F46CC030F4913071F168F0933075
:107BC00059F1E6C0983009F4A8C0993009F4B7C05B
:107BD000963009F0DDC07CC0803899F0823809F019
:107BE000D7C080919D018F70873008F0D1C08093FD
:107BF000E9008091EB0085FB882780F91092E9006D
:107C000001C080E09091E800977F9093E800809316
:107C1000F1001092F1008CC0282F2D7F09F0B8C020
:107C2000823009F0B5C080919B0181112AC08091FA
:107C30009D018F702FEF280F263008F0A9C0809388
:107C4000E9002091EB0020FF1CC0933021F48091CB
:107C5000EB00806214C09091EB0090619093EB0078
:107C600021E030E0F90102C0EE0FFF1F8A95E2F734
:107C7000E093EA001092EA008091EB008860809324
:107C8000EB001092E9008091E800877F54C08111D9
:107C90007FC0D0919B01DF778091E30080788D2BAE
:107CA0008093E3008091E800877F8093E80063DAA7
:107CB0008091E80080FFFCCF8091E3008068809392
:107CC000E300D11102C082E001C083E08EBB60C03E
:107CD0008058823008F05CC080919B0120909C010C
:107CE000312CF2E02F16310449F043E02416310420
:107CF00051F02A94232809F04BC078C06EE370E05D
:107D00008CE391E086C0882309F475C0813009F4C2
:107D100077C0823009F03CC078C08038C9F58091C6
:107D2000E800877F8093E8008091A1018093F100B3
:107D30008091E8008E778093E8001DDA29C08111D8
:107D400027C080919B0190919C019927029704F58F
:107D50008091E800877F8093E800D0919B01D093C9
:107D6000A10109DAD11106C08091E30087FD02C0AC
:107D700081E001C084E08EBB42E061EC82E018DA71
:107D800042E161E883E014DA42E160E884E010DA7D
:107D90008091E80083FF0AC08091E800877F80938C
:107DA000E8008091EB0080628093EB00CF70C0937D
:107DB000E90060CC8FE99FE00197F1F700C0000077
:107DC0008091E00081608093E00082E49CED9093DC
:107DD000A3018093A2019CE088E10FB6F894A895D6
:107DE000809360000FBE90936000FFCF62E170E06F
:107DF0008AE791E00EC064E070E08CE191E009C098
:107E00006AE170E080E291E004C062E170E088E045
:107E100091E02091E800277F2093E800DDD9809150
:107E2000E8008B778093E800B3CFF999FECF92BD3D
:107E300081BDF89A992780B50895262FF999FECF2C
:107E400092BD81BDF89A019700B4021639F01FBAAD
:107E500020BD0FB6F894FA9AF99A0FBE0895F894D7
:027E6000FFCF52
:107E6200000000000000080112034C00550046000B
:107E720041002000430044004300000004030904C1
:107E82001A034C0055004600410020004C006900D6
:107E920062007200610072007900000009023E0077
:107EA20002010080320904000001020201000524DF
:107EB20000100104240202052406000107058203C2
:107EC2000800FF09040100020A000000070504027D
:107ED20010000507058302100005120110010200BF
:107EE2000008EB034A200001010200014C55464103
:047EF20043444300C2
:107FA000B4CA83CA75CA6ECA67CA5FCA4DCA089581
:087FB000089508950895089555
:107FE000DFCFDFCFDFCFDFCFDFCFDFCFDFCFDFCF21
:087FF000DFCFDFCFDFCFDFCFD1
:087FF8000070000000DFFBDC5B
:040000030000700089
:00000001FF
