:107E0000F89429C00902220001010080320904000F
:107E100000010300000009211101000122150007E3
:107E200005810340000500004AC000004FC0120158
:107E3000100100000040EB0367200100000000017A
:107E400006DCFF09FBA1010902150025FF75089654
:107E500082009102C0002224339444B624BE08E17B
:107E6000122DACD041FE0C940000689412E035BE97
:107E700015BF10E81093610020926100C7EDD0E0BB
:107E800009810E76098338820068098314E012BFE5
:107E90000F7D098310E119BD12E119BD19B510FF5D
:107EA000FDCF18E01B87298600E909837894FEF34B
:107EB00009850160098708E11CE080D0FFCF2A8690
:107EC0003C8A02E30E8B08E0098F1895BB27A2E1DC
:107ED00008E00A8C0D920A95E1F727FD37C02030A3
:107EE00021F02F77213231F061C0353029F039305F
:107EF00041F05CC0393039F04C8766D040684C871F
:107F000055C062D053C065D071D0EA8CFA8CAFEF07
:107F1000AE15AF0511F4E89415C0F70113E06AD06F
:107F200000E4AB8DAA2B11F45AD060D00A8C1A8CC5
:107F300011E060D032960A95A1F7F70115E05AD00A
:107F400011E158D04CD04ED047D030C02E7F2038D1
:107F500011F4363009F02AC0FEE7513031F05230CA
:107F600039F0513241F0523249F0EEE202E108C0FC
:107F7000E4E002E205C0E6E109E002C0E0E405E178
:107F800028D0801708F0802F198913FD16C012FF22
:107F900010FF05C005910A8F8A95E1F71DD0198958
:107FA00012FF13FFFCCF13FD08C019D0098903FF8E
:107FB00004C00FD00C8900620C8B1895A895009313
:107FC000600010936000089504D00CD005D00AD052
:107FD000089517EF198B08951EEF198B08951BEF65
:107FE000198B0895198910FFFDCF0895198912FF83
:107FF000FDCF089517BFE89517B710FDFDCF089581
:0400000300007E007B
:00000001FF
